{
  "contractName": "ExpenseTracker",
  "abi": [
    {
      "constant": true,
      "inputs": [],
      "name": "balance",
      "outputs": [
        {
          "internalType": "int256",
          "name": "",
          "type": "int256"
        }
      ],
      "payable": false,
      "stateMutability": "view",
      "type": "function"
    },
    {
      "constant": true,
      "inputs": [],
      "name": "expence",
      "outputs": [
        {
          "internalType": "int256",
          "name": "",
          "type": "int256"
        }
      ],
      "payable": false,
      "stateMutability": "view",
      "type": "function"
    },
    {
      "constant": true,
      "inputs": [
        {
          "internalType": "uint256",
          "name": "",
          "type": "uint256"
        }
      ],
      "name": "history",
      "outputs": [
        {
          "internalType": "string",
          "name": "name",
          "type": "string"
        },
        {
          "internalType": "int256",
          "name": "value",
          "type": "int256"
        },
        {
          "internalType": "string",
          "name": "typee",
          "type": "string"
        }
      ],
      "payable": false,
      "stateMutability": "view",
      "type": "function"
    },
    {
      "constant": true,
      "inputs": [],
      "name": "income",
      "outputs": [
        {
          "internalType": "int256",
          "name": "",
          "type": "int256"
        }
      ],
      "payable": false,
      "stateMutability": "view",
      "type": "function"
    },
    {
      "constant": false,
      "inputs": [
        {
          "internalType": "string",
          "name": "description",
          "type": "string"
        },
        {
          "internalType": "int256",
          "name": "amount",
          "type": "int256"
        }
      ],
      "name": "addIncome",
      "outputs": [
        {
          "internalType": "bool",
          "name": "",
          "type": "bool"
        }
      ],
      "payable": false,
      "stateMutability": "nonpayable",
      "type": "function"
    },
    {
      "constant": false,
      "inputs": [
        {
          "internalType": "string",
          "name": "description",
          "type": "string"
        },
        {
          "internalType": "int256",
          "name": "amount",
          "type": "int256"
        }
      ],
      "name": "addExpense",
      "outputs": [
        {
          "internalType": "bool",
          "name": "",
          "type": "bool"
        }
      ],
      "payable": false,
      "stateMutability": "nonpayable",
      "type": "function"
    },
    {
      "constant": true,
      "inputs": [],
      "name": "getHistory",
      "outputs": [
        {
          "components": [
            {
              "internalType": "string",
              "name": "name",
              "type": "string"
            },
            {
              "internalType": "int256",
              "name": "value",
              "type": "int256"
            },
            {
              "internalType": "string",
              "name": "typee",
              "type": "string"
            }
          ],
          "internalType": "struct ExpenseTracker.historyData[]",
          "name": "",
          "type": "tuple[]"
        }
      ],
      "payable": false,
      "stateMutability": "view",
      "type": "function"
    }
  ],
  "bytecode": "0x608060405234801561001057600080fd5b50610c28806100206000396000f3fe608060405234801561001057600080fd5b506004361061007d5760003560e01c8063a7a38f0b1161005b578063a7a38f0b146100ee578063aa15efc814610120578063b69ef8a81461013e578063f8f151621461015c5761007d565b806341ab86e01461008257806379e41867146100b257806388b45046146100d0575b600080fd5b61009c600480360361009791908101906107ec565b61018c565b6040516100a99190610a0a565b60405180910390f35b6100ba610287565b6040516100c79190610a25565b60405180910390f35b6100d861028d565b6040516100e59190610a25565b60405180910390f35b61010860048036036101039190810190610840565b610293565b60405161011793929190610a40565b60405180910390f35b6101286103fa565b60405161013591906109e8565b60405180910390f35b6101466105a7565b6040516101539190610a25565b60405180910390f35b610176600480360361017191908101906107ec565b6105ad565b6040516101839190610a0a565b60405180910390f35b6000816000808282540392505081905550816002600082825401925050819055506101b56106a8565b60405180606001604052808581526020018481526020016040518060400160405280600781526020017f657870656e73650000000000000000000000000000000000000000000000000081525081525090506003819080600181540180825580915050906001820390600052602060002090600302016000909192909190915060008201518160000190805190602001906102519291906106c9565b506020820151816001015560408201518160020190805190602001906102789291906106c9565b50505050600191505092915050565b60025481565b60015481565b600381815481106102a057fe5b9060005260206000209060030201600091509050806000018054600181600116156101000203166002900480601f01602080910402602001604051908101604052809291908181526020018280546001816001161561010002031660029004801561034c5780601f106103215761010080835404028352916020019161034c565b820191906000526020600020905b81548152906001019060200180831161032f57829003601f168201915b505050505090806001015490806002018054600181600116156101000203166002900480601f0160208091040260200160405190810160405280929190818152602001828054600181600116156101000203166002900480156103f05780601f106103c5576101008083540402835291602001916103f0565b820191906000526020600020905b8154815290600101906020018083116103d357829003601f168201915b5050505050905083565b60606003805480602002602001604051908101604052809291908181526020016000905b8282101561059e5783829060005260206000209060030201604051806060016040529081600082018054600181600116156101000203166002900480601f0160208091040260200160405190810160405280929190818152602001828054600181600116156101000203166002900480156104da5780601f106104af576101008083540402835291602001916104da565b820191906000526020600020905b8154815290600101906020018083116104bd57829003601f168201915b5050505050815260200160018201548152602001600282018054600181600116156101000203166002900480601f0160208091040260200160405190810160405280929190818152602001828054600181600116156101000203166002900480156105865780601f1061055b57610100808354040283529160200191610586565b820191906000526020600020905b81548152906001019060200180831161056957829003601f168201915b5050505050815250508152602001906001019061041e565b50505050905090565b60005481565b6000816000808282540192505081905550816001600082825401925050819055506105d66106a8565b60405180606001604052808581526020018481526020016040518060400160405280600681526020017f696e636f6d65000000000000000000000000000000000000000000000000000081525081525090506003819080600181540180825580915050906001820390600052602060002090600302016000909192909190915060008201518160000190805190602001906106729291906106c9565b506020820151816001015560408201518160020190805190602001906106999291906106c9565b50505050600191505092915050565b60405180606001604052806060815260200160008152602001606081525090565b828054600181600116156101000203166002900490600052602060002090601f016020900481019282601f1061070a57805160ff1916838001178555610738565b82800160010185558215610738579182015b8281111561073757825182559160200191906001019061071c565b5b5090506107459190610749565b5090565b61076b91905b8082111561076757600081600090555060010161074f565b5090565b90565b60008135905061077d81610bb7565b92915050565b600082601f83011261079457600080fd5b81356107a76107a282610ab2565b610a85565b915080825260208301602083018583830111156107c357600080fd5b6107ce838284610b64565b50505092915050565b6000813590506107e681610bce565b92915050565b600080604083850312156107ff57600080fd5b600083013567ffffffffffffffff81111561081957600080fd5b61082585828601610783565b92505060206108368582860161076e565b9150509250929050565b60006020828403121561085257600080fd5b6000610860848285016107d7565b91505092915050565b60006108758383610991565b905092915050565b600061088882610aee565b6108928185610b11565b9350836020820285016108a485610ade565b8060005b858110156108e057848403895281516108c18582610869565b94506108cc83610b04565b925060208a019950506001810190506108a8565b50829750879550505050505092915050565b6108fb81610b44565b82525050565b61090a81610b50565b82525050565b61091981610b50565b82525050565b600061092a82610af9565b6109348185610b22565b9350610944818560208601610b73565b61094d81610ba6565b840191505092915050565b600061096382610af9565b61096d8185610b33565b935061097d818560208601610b73565b61098681610ba6565b840191505092915050565b600060608301600083015184820360008601526109ae828261091f565b91505060208301516109c36020860182610901565b50604083015184820360408601526109db828261091f565b9150508091505092915050565b60006020820190508181036000830152610a02818461087d565b905092915050565b6000602082019050610a1f60008301846108f2565b92915050565b6000602082019050610a3a6000830184610910565b92915050565b60006060820190508181036000830152610a5a8186610958565b9050610a696020830185610910565b8181036040830152610a7b8184610958565b9050949350505050565b6000604051905081810181811067ffffffffffffffff82111715610aa857600080fd5b8060405250919050565b600067ffffffffffffffff821115610ac957600080fd5b601f19601f8301169050602081019050919050565b6000819050602082019050919050565b600081519050919050565b600081519050919050565b6000602082019050919050565b600082825260208201905092915050565b600082825260208201905092915050565b600082825260208201905092915050565b60008115159050919050565b6000819050919050565b6000819050919050565b82818337600083830152505050565b60005b83811015610b91578082015181840152602081019050610b76565b83811115610ba0576000848401525b50505050565b6000601f19601f8301169050919050565b610bc081610b50565b8114610bcb57600080fd5b50565b610bd781610b5a565b8114610be257600080fd5b5056fea365627a7a723158201950fcc48bc65779984b61c418b35f68d02516525990ee786de5d53be0ba44be6c6578706572696d656e74616cf564736f6c63430005100040",
  "source": "//pragma solidity 0.5.16;\r\npragma solidity ^0.5.0;\r\npragma experimental ABIEncoderV2;\r\ncontract ExpenseTracker {\r\n        \r\n        int public balance;\r\n        int public income;\r\n        int public expence;\r\n        \r\n        historyData[] public history;\r\n        \r\n        struct historyData { \r\n            string name;\r\n            int value;\r\n            string typee;\r\n        }\r\n\r\n        function addIncome(string memory description, int amount) public returns(bool){\r\n            balance += amount;\r\n            income += amount;\r\n            historyData memory myData = historyData(description, amount, \"income\");\r\n            history.push(myData);\r\n            return true;\r\n        }\r\n        \r\n        function addExpense(string memory description, int amount) public returns(bool){\r\n            balance -= amount;\r\n            expence += amount;\r\n            historyData memory myData = historyData(description, amount, \"expense\");\r\n            history.push(myData);\r\n            return true;\r\n        }\r\n        \r\n        function getHistory() public view returns(historyData[] memory){\r\n            return history;\r\n        }\r\n}\r\n\r\n",
  "sourcePath": "D:/Dapps/expence-tracker-dapp/contracts/ExpenseTracker.sol",
  "compiler": {
    "name": "solc",
    "version": "0.5.16+commit.9c3226ce.Emscripten.clang"
  },
  "schemaVersion": "3.3.3",
  "updatedAt": "2021-03-03T11:13:35.446Z",
  "networkType": "ethereum",
  "devdoc": {
    "methods": {}
  },
  "userdoc": {
    "methods": {}
  }
}